{"abi":[{"type":"constructor","inputs":[{"name":"_timeLimit","type":"uint256","internalType":"uint256"}],"stateMutability":"nonpayable"},{"type":"receive","stateMutability":"payable"},{"type":"function","name":"lastTokenRequestTime","inputs":[{"name":"","type":"address","internalType":"address"},{"name":"","type":"address","internalType":"contract IERC20"}],"outputs":[{"name":"","type":"uint256","internalType":"uint256"}],"stateMutability":"view"},{"type":"function","name":"owner","inputs":[],"outputs":[{"name":"","type":"address","internalType":"address"}],"stateMutability":"view"},{"type":"function","name":"renounceOwnership","inputs":[],"outputs":[],"stateMutability":"nonpayable"},{"type":"function","name":"requestMultipleTokens","inputs":[{"name":"_tokens","type":"address[]","internalType":"contract IERC20[]"}],"outputs":[{"name":"","type":"bool","internalType":"bool"}],"stateMutability":"nonpayable"},{"type":"function","name":"requestToken","inputs":[{"name":"_token","type":"address","internalType":"contract IERC20"}],"outputs":[{"name":"","type":"bool","internalType":"bool"}],"stateMutability":"nonpayable"},{"type":"function","name":"setTimeLimit","inputs":[{"name":"_timeLimit","type":"uint256","internalType":"uint256"}],"outputs":[],"stateMutability":"nonpayable"},{"type":"function","name":"setTokenAmount","inputs":[{"name":"_token","type":"address","internalType":"contract IERC20"},{"name":"_amount","type":"uint256","internalType":"uint256"}],"outputs":[],"stateMutability":"nonpayable"},{"type":"function","name":"timeLimit","inputs":[],"outputs":[{"name":"","type":"uint256","internalType":"uint256"}],"stateMutability":"view"},{"type":"function","name":"tokenAmounts","inputs":[{"name":"","type":"address","internalType":"contract IERC20"}],"outputs":[{"name":"","type":"uint256","internalType":"uint256"}],"stateMutability":"view"},{"type":"function","name":"transferOwnership","inputs":[{"name":"newOwner","type":"address","internalType":"address"}],"outputs":[],"stateMutability":"nonpayable"},{"type":"function","name":"withdrawToken","inputs":[{"name":"_token","type":"address","internalType":"contract IERC20"}],"outputs":[],"stateMutability":"nonpayable"},{"type":"event","name":"OwnershipTransferred","inputs":[{"name":"previousOwner","type":"address","indexed":true,"internalType":"address"},{"name":"newOwner","type":"address","indexed":true,"internalType":"address"}],"anonymous":false},{"type":"event","name":"WithdrawalRequest","inputs":[{"name":"_to","type":"address","indexed":true,"internalType":"address"},{"name":"_token","type":"address","indexed":true,"internalType":"contract IERC20"},{"name":"_amount","type":"uint256","indexed":true,"internalType":"uint256"}],"anonymous":false},{"type":"error","name":"AddressEmptyCode","inputs":[{"name":"target","type":"address","internalType":"address"}]},{"type":"error","name":"AddressInsufficientBalance","inputs":[{"name":"account","type":"address","internalType":"address"}]},{"type":"error","name":"EtherDepositsNotAllowed","inputs":[]},{"type":"error","name":"FailedInnerCall","inputs":[]},{"type":"error","name":"InsufficientBalanceInFaucet","inputs":[{"name":"available","type":"uint256","internalType":"uint256"},{"name":"required","type":"uint256","internalType":"uint256"}]},{"type":"error","name":"InsufficientEthBalanceOfWallet","inputs":[{"name":"available","type":"uint256","internalType":"uint256"},{"name":"required","type":"uint256","internalType":"uint256"}]},{"type":"error","name":"OwnableInvalidOwner","inputs":[{"name":"owner","type":"address","internalType":"address"}]},{"type":"error","name":"OwnableUnauthorizedAccount","inputs":[{"name":"account","type":"address","internalType":"address"}]},{"type":"error","name":"SafeERC20FailedOperation","inputs":[{"name":"token","type":"address","internalType":"address"}]},{"type":"error","name":"TimeLimitCantBeZero","inputs":[]},{"type":"error","name":"TimeLimitHasNotPassed","inputs":[{"name":"currentTime","type":"uint256","internalType":"uint256"},{"name":"lastRequestTime","type":"uint256","internalType":"uint256"}]},{"type":"error","name":"UnsupportedToken","inputs":[]}],"bytecode":{"object":"0x608060405234801561001057600080fd5b50604051610c34380380610c3483398101604081905261002f916100d8565b338061005557604051631e4fbdf760e01b81526000600482015260240160405180910390fd5b61005e81610088565b508060000361008057604051632df66fcb60e01b815260040160405180910390fd5b6001556100f1565b600080546001600160a01b038381166001600160a01b0319831681178455604051919092169283917f8be0079c531659141344cd1fd0a4f28419497f9722a3daafe3b4186f6b6457e09190a35050565b6000602082840312156100ea57600080fd5b5051919050565b610b34806101006000396000f3fe6080604052600436106100a05760003560e01c80638da5cb5b116100645780638da5cb5b14610195578063a037eca9146101bd578063a0e2e5f6146101dd578063c08d1fe51461020a578063e2889c8214610220578063f2fde38b1461024057600080fd5b80633313877d146100c3578063458ea5fd1461010e5780635a15f4941461013e578063715018a614610160578063894760691461017557600080fd5b366100be57604051630133138760e11b815260040160405180910390fd5b600080fd5b3480156100cf57600080fd5b506100fb6100de36600461094b565b600360209081526000928352604080842090915290825290205481565b6040519081526020015b60405180910390f35b34801561011a57600080fd5b5061012e610129366004610984565b610260565b6040519015158152602001610105565b34801561014a57600080fd5b5061015e6101593660046109fb565b6102ab565b005b34801561016c57600080fd5b5061015e6102cf565b34801561018157600080fd5b5061015e610190366004610a27565b6102e3565b3480156101a157600080fd5b506000546040516001600160a01b039091168152602001610105565b3480156101c957600080fd5b5061012e6101d8366004610a27565b6103b3565b3480156101e957600080fd5b506100fb6101f8366004610a27565b60026020526000908152604090205481565b34801561021657600080fd5b506100fb60015481565b34801561022c57600080fd5b5061015e61023b366004610a44565b61065c565b34801561024c57600080fd5b5061015e61025b366004610a27565b61068a565b6000805b8281101561029f5761029684848381811061028157610281610a5d565b90506020020160208101906101d89190610a27565b50600101610264565b50600190505b92915050565b6102b36106c8565b6001600160a01b03909116600090815260026020526040902055565b6102d76106c8565b6102e160006106f5565b565b6102eb6106c8565b6040516370a0823160e01b81523060048201526000906001600160a01b038316906370a0823190602401602060405180830381865afa158015610332573d6000803e3d6000fd5b505050506040513d601f19601f820116820180604052508101906103569190610a73565b9050806001816103875760405163ce3c6c8360e01b8152600481019290925260248201526044015b60405180910390fd5b50506103af61039e6000546001600160a01b031690565b6001600160a01b0384169083610745565b5050565b600067016345785d8a0000338031908290318111156103ee5760405163580d878160e01b81526004810192909252602482015260440161037e565b50506001600160a01b03831660009081526002602052604081205490036104285760405163350b944160e11b815260040160405180910390fd5b6001600160a01b038316600081815260026020526040908190205490516370a0823160e01b81523060048201529091906370a0823190602401602060405180830381865afa15801561047e573d6000803e3d6000fd5b505050506040513d601f19601f820116820180604052508101906104a29190610a73565b6040516370a0823160e01b8152306004820152911115906001600160a01b038516906370a0823190602401602060405180830381865afa1580156104ea573d6000803e3d6000fd5b505050506040513d601f19601f8201168201806040525081019061050e9190610a73565b6001600160a01b038516600090815260026020526040902054909161054f5760405163ce3c6c8360e01b81526004810192909252602482015260440161037e565b50506001543360009081526003602090815260408083206001600160a01b03881684529091529020546105829190610a8c565b3360009081526003602090815260408083206001600160a01b038816845290915290205442918210156105d15760405163aeb1cf5760e01b81526004810192909252602482015260440161037e565b50503360008181526003602090815260408083206001600160a01b03881680855290835281842042905560029092529091205461060e9290610745565b6001600160a01b03831660008181526002602052604080822054905190929133917f194b054fe9183adcdbc9c27a49a3419929c6291c5ab71c5f999e50ff1efa8ac29190a450600192915050565b6106646106c8565b8060000361068557604051632df66fcb60e01b815260040160405180910390fd5b600155565b6106926106c8565b6001600160a01b0381166106bc57604051631e4fbdf760e01b81526000600482015260240161037e565b6106c5816106f5565b50565b6000546001600160a01b031633146102e15760405163118cdaa760e01b815233600482015260240161037e565b600080546001600160a01b038381166001600160a01b0319831681178455604051919092169283917f8be0079c531659141344cd1fd0a4f28419497f9722a3daafe3b4186f6b6457e09190a35050565b604080516001600160a01b038416602482015260448082018490528251808303909101815260649091019091526020810180516001600160e01b031663a9059cbb60e01b17905261079790849061079c565b505050565b60006107b16001600160a01b038416836107ff565b905080516000141580156107d65750808060200190518101906107d49190610aad565b155b1561079757604051635274afe760e01b81526001600160a01b038416600482015260240161037e565b606061080d83836000610814565b9392505050565b6060814710156108395760405163cd78605960e01b815230600482015260240161037e565b600080856001600160a01b031684866040516108559190610acf565b60006040518083038185875af1925050503d8060008114610892576040519150601f19603f3d011682016040523d82523d6000602084013e610897565b606091505b50915091506108a78683836108b1565b9695505050505050565b6060826108c6576108c18261090d565b61080d565b81511580156108dd57506001600160a01b0384163b155b1561090657604051639996b31560e01b81526001600160a01b038516600482015260240161037e565b508061080d565b80511561091d5780518082602001fd5b604051630a12f52160e11b815260040160405180910390fd5b6001600160a01b03811681146106c557600080fd5b6000806040838503121561095e57600080fd5b823561096981610936565b9150602083013561097981610936565b809150509250929050565b6000806020838503121561099757600080fd5b823567ffffffffffffffff8111156109ae57600080fd5b8301601f810185136109bf57600080fd5b803567ffffffffffffffff8111156109d657600080fd5b8560208260051b84010111156109eb57600080fd5b6020919091019590945092505050565b60008060408385031215610a0e57600080fd5b8235610a1981610936565b946020939093013593505050565b600060208284031215610a3957600080fd5b813561080d81610936565b600060208284031215610a5657600080fd5b5035919050565b634e487b7160e01b600052603260045260246000fd5b600060208284031215610a8557600080fd5b5051919050565b808201808211156102a557634e487b7160e01b600052601160045260246000fd5b600060208284031215610abf57600080fd5b8151801515811461080d57600080fd5b6000825160005b81811015610af05760208186018101518583015201610ad6565b50600092019182525091905056fea26469706673582212208e6b3f767f4a4aedbd433b05b81b94a417502b83c8c77fa62184b9b3fb19d12764736f6c634300081b0033","linkReferences":{}},"methodIdentifiers":{"lastTokenRequestTime(address,address)":"3313877d","owner()":"8da5cb5b","renounceOwnership()":"715018a6","requestMultipleTokens(address[])":"458ea5fd","requestToken(address)":"a037eca9","setTimeLimit(uint256)":"e2889c82","setTokenAmount(address,uint256)":"5a15f494","timeLimit()":"c08d1fe5","tokenAmounts(address)":"a0e2e5f6","transferOwnership(address)":"f2fde38b","withdrawToken(address)":"89476069"},"id":0}