{"abi":[{"type":"receive","stateMutability":"payable"},{"type":"function","name":"UPGRADE_INTERFACE_VERSION","inputs":[],"outputs":[{"name":"","type":"string","internalType":"string"}],"stateMutability":"view"},{"type":"function","name":"initialize","inputs":[{"name":"_timeLimit","type":"uint256","internalType":"uint256"}],"outputs":[],"stateMutability":"nonpayable"},{"type":"function","name":"lastTokenRequestTime","inputs":[{"name":"","type":"address","internalType":"address"},{"name":"","type":"address","internalType":"contract IERC20"}],"outputs":[{"name":"","type":"uint256","internalType":"uint256"}],"stateMutability":"view"},{"type":"function","name":"owner","inputs":[],"outputs":[{"name":"","type":"address","internalType":"address"}],"stateMutability":"view"},{"type":"function","name":"proxiableUUID","inputs":[],"outputs":[{"name":"","type":"bytes32","internalType":"bytes32"}],"stateMutability":"view"},{"type":"function","name":"renounceOwnership","inputs":[],"outputs":[],"stateMutability":"nonpayable"},{"type":"function","name":"requestMultipleTokens","inputs":[{"name":"_tokens","type":"address[]","internalType":"contract IERC20[]"}],"outputs":[{"name":"","type":"bool","internalType":"bool"}],"stateMutability":"nonpayable"},{"type":"function","name":"requestToken","inputs":[{"name":"_token","type":"address","internalType":"contract IERC20"}],"outputs":[{"name":"","type":"bool","internalType":"bool"}],"stateMutability":"nonpayable"},{"type":"function","name":"setTimeLimit","inputs":[{"name":"_timeLimit","type":"uint256","internalType":"uint256"}],"outputs":[],"stateMutability":"nonpayable"},{"type":"function","name":"setTokenAmount","inputs":[{"name":"_token","type":"address","internalType":"contract IERC20"},{"name":"_amount","type":"uint256","internalType":"uint256"}],"outputs":[],"stateMutability":"nonpayable"},{"type":"function","name":"timeLimit","inputs":[],"outputs":[{"name":"","type":"uint256","internalType":"uint256"}],"stateMutability":"view"},{"type":"function","name":"tokenAmounts","inputs":[{"name":"","type":"address","internalType":"contract IERC20"}],"outputs":[{"name":"","type":"uint256","internalType":"uint256"}],"stateMutability":"view"},{"type":"function","name":"transferOwnership","inputs":[{"name":"newOwner","type":"address","internalType":"address"}],"outputs":[],"stateMutability":"nonpayable"},{"type":"function","name":"upgradeToAndCall","inputs":[{"name":"newImplementation","type":"address","internalType":"address"},{"name":"data","type":"bytes","internalType":"bytes"}],"outputs":[],"stateMutability":"payable"},{"type":"function","name":"withdrawToken","inputs":[{"name":"_token","type":"address","internalType":"contract IERC20"}],"outputs":[],"stateMutability":"nonpayable"},{"type":"event","name":"Initialized","inputs":[{"name":"version","type":"uint64","indexed":false,"internalType":"uint64"}],"anonymous":false},{"type":"event","name":"OwnershipTransferred","inputs":[{"name":"previousOwner","type":"address","indexed":true,"internalType":"address"},{"name":"newOwner","type":"address","indexed":true,"internalType":"address"}],"anonymous":false},{"type":"event","name":"Upgraded","inputs":[{"name":"implementation","type":"address","indexed":true,"internalType":"address"}],"anonymous":false},{"type":"event","name":"WithdrawalRequest","inputs":[{"name":"_to","type":"address","indexed":true,"internalType":"address"},{"name":"_token","type":"address","indexed":true,"internalType":"contract IERC20"},{"name":"_amount","type":"uint256","indexed":true,"internalType":"uint256"}],"anonymous":false},{"type":"error","name":"AddressEmptyCode","inputs":[{"name":"target","type":"address","internalType":"address"}]},{"type":"error","name":"AddressInsufficientBalance","inputs":[{"name":"account","type":"address","internalType":"address"}]},{"type":"error","name":"ERC1967InvalidImplementation","inputs":[{"name":"implementation","type":"address","internalType":"address"}]},{"type":"error","name":"ERC1967NonPayable","inputs":[]},{"type":"error","name":"EtherDepositsNotAllowed","inputs":[]},{"type":"error","name":"FailedInnerCall","inputs":[]},{"type":"error","name":"InsufficientBalanceInFaucet","inputs":[{"name":"available","type":"uint256","internalType":"uint256"},{"name":"required","type":"uint256","internalType":"uint256"}]},{"type":"error","name":"InsufficientEthBalanceOfWallet","inputs":[{"name":"available","type":"uint256","internalType":"uint256"},{"name":"required","type":"uint256","internalType":"uint256"}]},{"type":"error","name":"InvalidInitialization","inputs":[]},{"type":"error","name":"NotInitializing","inputs":[]},{"type":"error","name":"OwnableInvalidOwner","inputs":[{"name":"owner","type":"address","internalType":"address"}]},{"type":"error","name":"OwnableUnauthorizedAccount","inputs":[{"name":"account","type":"address","internalType":"address"}]},{"type":"error","name":"SafeERC20FailedOperation","inputs":[{"name":"token","type":"address","internalType":"address"}]},{"type":"error","name":"TimeLimitCantBeZero","inputs":[]},{"type":"error","name":"TimeLimitHasNotPassed","inputs":[{"name":"currentTime","type":"uint256","internalType":"uint256"},{"name":"lastRequestTime","type":"uint256","internalType":"uint256"}]},{"type":"error","name":"UUPSUnauthorizedCallContext","inputs":[]},{"type":"error","name":"UUPSUnsupportedProxiableUUID","inputs":[{"name":"slot","type":"bytes32","internalType":"bytes32"}]},{"type":"error","name":"UnsupportedToken","inputs":[]}],"bytecode":{"object":"0x60a060405230608052348015601357600080fd5b5060805161126d61003d6000396000818161093b015281816109640152610aaa015261126d6000f3fe6080604052600436106100ec5760003560e01c80638da5cb5b1161008a578063c08d1fe511610059578063c08d1fe5146102c1578063e2889c82146102d7578063f2fde38b146102f7578063fe4b84df1461031757600080fd5b80638da5cb5b14610209578063a037eca914610236578063a0e2e5f614610256578063ad3cb1cc1461028357600080fd5b806352d1902d116100c657806352d1902d1461019f5780635a15f494146101b4578063715018a6146101d457806389476069146101e957600080fd5b80633313877d1461010f578063458ea5fd1461015a5780634f1ef2861461018a57600080fd5b3661010a57604051630133138760e11b815260040160405180910390fd5b600080fd5b34801561011b57600080fd5b5061014761012a366004610f3e565b600260209081526000928352604080842090915290825290205481565b6040519081526020015b60405180910390f35b34801561016657600080fd5b5061017a610175366004610f77565b610337565b6040519015158152602001610151565b61019d610198366004611004565b610382565b005b3480156101ab57600080fd5b506101476103a1565b3480156101c057600080fd5b5061019d6101cf3660046110d0565b6103be565b3480156101e057600080fd5b5061019d6103e2565b3480156101f557600080fd5b5061019d6102043660046110fc565b6103f6565b34801561021557600080fd5b5061021e6104b8565b6040516001600160a01b039091168152602001610151565b34801561024257600080fd5b5061017a6102513660046110fc565b6104e6565b34801561026257600080fd5b506101476102713660046110fc565b60016020526000908152604090205481565b34801561028f57600080fd5b506102b4604051806040016040528060058152602001640352e302e360dc1b81525081565b604051610151919061113d565b3480156102cd57600080fd5b5061014760005481565b3480156102e357600080fd5b5061019d6102f2366004611170565b61078e565b34801561030357600080fd5b5061019d6103123660046110fc565b6107bc565b34801561032357600080fd5b5061019d610332366004611170565b6107fa565b6000805b828110156103765761036d84848381811061035857610358611189565b905060200201602081019061025191906110fc565b5060010161033b565b50600190505b92915050565b61038a610930565b610393826109d5565b61039d82826109dd565b5050565b60006103ab610a9f565b5060008051602061121883398151915290565b6103c6610ae8565b6001600160a01b03909116600090815260016020526040902055565b6103ea610ae8565b6103f46000610b1a565b565b6103fe610ae8565b6040516370a0823160e01b81523060048201526000906001600160a01b038316906370a0823190602401602060405180830381865afa158015610445573d6000803e3d6000fd5b505050506040513d601f19601f82011682018060405250810190610469919061119f565b90508060018161049a5760405163ce3c6c8360e01b8152600481019290925260248201526044015b60405180910390fd5b505061039d6104a76104b8565b6001600160a01b0384169083610b8b565b7f9016d09d72d40fdae2fd8ceac6b6234c7706214fd39c1cd1e609a0528c199300546001600160a01b031690565b600067016345785d8a0000338031908290318111156105215760405163580d878160e01b815260048101929092526024820152604401610491565b50506001600160a01b038316600090815260016020526040812054900361055b5760405163350b944160e11b815260040160405180910390fd5b6001600160a01b038316600081815260016020526040908190205490516370a0823160e01b81523060048201529091906370a0823190602401602060405180830381865afa1580156105b1573d6000803e3d6000fd5b505050506040513d601f19601f820116820180604052508101906105d5919061119f565b6040516370a0823160e01b8152306004820152911115906001600160a01b038516906370a0823190602401602060405180830381865afa15801561061d573d6000803e3d6000fd5b505050506040513d601f19601f82011682018060405250810190610641919061119f565b6001600160a01b03851660009081526001602052604090205490916106825760405163ce3c6c8360e01b815260048101929092526024820152604401610491565b5050600080543382526002602090815260408084206001600160a01b0388168552909152909120546106b491906111b8565b3360009081526002602090815260408083206001600160a01b038816845290915290205442918210156107035760405163aeb1cf5760e01b815260048101929092526024820152604401610491565b50503360008181526002602090815260408083206001600160a01b0388168085529083528184204290556001909252909120546107409290610b8b565b6001600160a01b03831660008181526001602052604080822054905190929133917f194b054fe9183adcdbc9c27a49a3419929c6291c5ab71c5f999e50ff1efa8ac29190a450600192915050565b610796610ae8565b806000036107b757604051632df66fcb60e01b815260040160405180910390fd5b600055565b6107c4610ae8565b6001600160a01b0381166107ee57604051631e4fbdf760e01b815260006004820152602401610491565b6107f781610b1a565b50565b7ff0c57e16840df040f15088dc2f81fe391c3923bec73e23a9662efc9c229c6a008054600160401b810460ff16159067ffffffffffffffff166000811580156108405750825b905060008267ffffffffffffffff16600114801561085d5750303b155b90508115801561086b575080155b156108895760405163f92ee8a960e01b815260040160405180910390fd5b845467ffffffffffffffff1916600117855583156108b357845460ff60401b1916600160401b1785555b6108bc33610bdd565b856000036108dd57604051632df66fcb60e01b815260040160405180910390fd5b6000869055831561092857845460ff60401b19168555604051600181527fc7f505b2f371ae2175ee4913f4499e1f2633a7b5936321eed1cdaeb6115181d29060200160405180910390a15b505050505050565b306001600160a01b037f00000000000000000000000000000000000000000000000000000000000000001614806109b757507f00000000000000000000000000000000000000000000000000000000000000006001600160a01b03166109ab600080516020611218833981519152546001600160a01b031690565b6001600160a01b031614155b156103f45760405163703e46dd60e11b815260040160405180910390fd5b6107f7610ae8565b816001600160a01b03166352d1902d6040518163ffffffff1660e01b8152600401602060405180830381865afa925050508015610a37575060408051601f3d908101601f19168201909252610a349181019061119f565b60015b610a5f57604051634c9c8ce360e01b81526001600160a01b0383166004820152602401610491565b6000805160206112188339815191528114610a9057604051632a87526960e21b815260048101829052602401610491565b610a9a8383610bee565b505050565b306001600160a01b037f000000000000000000000000000000000000000000000000000000000000000016146103f45760405163703e46dd60e11b815260040160405180910390fd5b33610af16104b8565b6001600160a01b0316146103f45760405163118cdaa760e01b8152336004820152602401610491565b7f9016d09d72d40fdae2fd8ceac6b6234c7706214fd39c1cd1e609a0528c19930080546001600160a01b031981166001600160a01b03848116918217845560405192169182907f8be0079c531659141344cd1fd0a4f28419497f9722a3daafe3b4186f6b6457e090600090a3505050565b604080516001600160a01b038416602482015260448082018490528251808303909101815260649091019091526020810180516001600160e01b031663a9059cbb60e01b179052610a9a908490610c44565b610be5610ca7565b6107f781610cf0565b610bf782610cf8565b6040516001600160a01b038316907fbc7cd75a20ee27fd9adebab32041f755214dbc6bffa90cc0225b39da2e5c2d3b90600090a2805115610c3c57610a9a8282610d5d565b61039d610dd3565b6000610c596001600160a01b03841683610df2565b90508051600014158015610c7e575080806020019051810190610c7c91906111d9565b155b15610a9a57604051635274afe760e01b81526001600160a01b0384166004820152602401610491565b7ff0c57e16840df040f15088dc2f81fe391c3923bec73e23a9662efc9c229c6a0054600160401b900460ff166103f457604051631afcd79f60e31b815260040160405180910390fd5b6107c4610ca7565b806001600160a01b03163b600003610d2e57604051634c9c8ce360e01b81526001600160a01b0382166004820152602401610491565b60008051602061121883398151915280546001600160a01b0319166001600160a01b0392909216919091179055565b6060600080846001600160a01b031684604051610d7a91906111fb565b600060405180830381855af49150503d8060008114610db5576040519150601f19603f3d011682016040523d82523d6000602084013e610dba565b606091505b5091509150610dca858383610e07565b95945050505050565b34156103f45760405163b398979f60e01b815260040160405180910390fd5b6060610e0083836000610e63565b9392505050565b606082610e1c57610e1782610f00565b610e00565b8151158015610e3357506001600160a01b0384163b155b15610e5c57604051639996b31560e01b81526001600160a01b0385166004820152602401610491565b5092915050565b606081471015610e885760405163cd78605960e01b8152306004820152602401610491565b600080856001600160a01b03168486604051610ea491906111fb565b60006040518083038185875af1925050503d8060008114610ee1576040519150601f19603f3d011682016040523d82523d6000602084013e610ee6565b606091505b5091509150610ef6868383610e07565b9695505050505050565b805115610f105780518082602001fd5b604051630a12f52160e11b815260040160405180910390fd5b6001600160a01b03811681146107f757600080fd5b60008060408385031215610f5157600080fd5b8235610f5c81610f29565b91506020830135610f6c81610f29565b809150509250929050565b60008060208385031215610f8a57600080fd5b823567ffffffffffffffff811115610fa157600080fd5b8301601f81018513610fb257600080fd5b803567ffffffffffffffff811115610fc957600080fd5b8560208260051b8401011115610fde57600080fd5b6020919091019590945092505050565b634e487b7160e01b600052604160045260246000fd5b6000806040838503121561101757600080fd5b823561102281610f29565b9150602083013567ffffffffffffffff81111561103e57600080fd5b8301601f8101851361104f57600080fd5b803567ffffffffffffffff81111561106957611069610fee565b604051601f8201601f19908116603f0116810167ffffffffffffffff8111828210171561109857611098610fee565b6040528181528282016020018710156110b057600080fd5b816020840160208301376000602083830101528093505050509250929050565b600080604083850312156110e357600080fd5b82356110ee81610f29565b946020939093013593505050565b60006020828403121561110e57600080fd5b8135610e0081610f29565b60005b8381101561113457818101518382015260200161111c565b50506000910152565b602081526000825180602084015261115c816040850160208701611119565b601f01601f19169190910160400192915050565b60006020828403121561118257600080fd5b5035919050565b634e487b7160e01b600052603260045260246000fd5b6000602082840312156111b157600080fd5b5051919050565b8082018082111561037c57634e487b7160e01b600052601160045260246000fd5b6000602082840312156111eb57600080fd5b81518015158114610e0057600080fd5b6000825161120d818460208701611119565b919091019291505056fe360894a13ba1a3210667c828492db98dca3e2076cc3735a920a3ca505d382bbca2646970667358221220f8b3ac25a7eb2eed9b2b8d7317f8cbbca655fe3f1280ee3a8837f6d2c8875a4e64736f6c634300081b0033","linkReferences":{}},"methodIdentifiers":{"UPGRADE_INTERFACE_VERSION()":"ad3cb1cc","initialize(uint256)":"fe4b84df","lastTokenRequestTime(address,address)":"3313877d","owner()":"8da5cb5b","proxiableUUID()":"52d1902d","renounceOwnership()":"715018a6","requestMultipleTokens(address[])":"458ea5fd","requestToken(address)":"a037eca9","setTimeLimit(uint256)":"e2889c82","setTokenAmount(address,uint256)":"5a15f494","timeLimit()":"c08d1fe5","tokenAmounts(address)":"a0e2e5f6","transferOwnership(address)":"f2fde38b","upgradeToAndCall(address,bytes)":"4f1ef286","withdrawToken(address)":"89476069"},"id":5}