{"abi":[{"type":"receive","stateMutability":"payable"},{"type":"function","name":"initialize","inputs":[{"name":"_timeLimit","type":"uint256","internalType":"uint256"},{"name":"_initialOwner","type":"address","internalType":"address"}],"outputs":[],"stateMutability":"nonpayable"},{"type":"function","name":"lastTokenRequestTime","inputs":[{"name":"","type":"address","internalType":"address"},{"name":"","type":"address","internalType":"contract IERC20"}],"outputs":[{"name":"","type":"uint256","internalType":"uint256"}],"stateMutability":"view"},{"type":"function","name":"owner","inputs":[],"outputs":[{"name":"","type":"address","internalType":"address"}],"stateMutability":"view"},{"type":"function","name":"renounceOwnership","inputs":[],"outputs":[],"stateMutability":"nonpayable"},{"type":"function","name":"requestMultipleTokens","inputs":[{"name":"_tokens","type":"address[]","internalType":"contract IERC20[]"}],"outputs":[{"name":"","type":"bool","internalType":"bool"}],"stateMutability":"nonpayable"},{"type":"function","name":"requestToken","inputs":[{"name":"_token","type":"address","internalType":"contract IERC20"}],"outputs":[{"name":"","type":"bool","internalType":"bool"}],"stateMutability":"nonpayable"},{"type":"function","name":"setTimeLimit","inputs":[{"name":"_timeLimit","type":"uint256","internalType":"uint256"}],"outputs":[],"stateMutability":"nonpayable"},{"type":"function","name":"setTokenAmount","inputs":[{"name":"_token","type":"address","internalType":"contract IERC20"},{"name":"_amount","type":"uint256","internalType":"uint256"}],"outputs":[],"stateMutability":"nonpayable"},{"type":"function","name":"timeLimit","inputs":[],"outputs":[{"name":"","type":"uint256","internalType":"uint256"}],"stateMutability":"view"},{"type":"function","name":"tokenAmounts","inputs":[{"name":"","type":"address","internalType":"contract IERC20"}],"outputs":[{"name":"","type":"uint256","internalType":"uint256"}],"stateMutability":"view"},{"type":"function","name":"transferOwnership","inputs":[{"name":"newOwner","type":"address","internalType":"address"}],"outputs":[],"stateMutability":"nonpayable"},{"type":"function","name":"withdrawToken","inputs":[{"name":"_token","type":"address","internalType":"contract IERC20"}],"outputs":[],"stateMutability":"nonpayable"},{"type":"event","name":"Initialized","inputs":[{"name":"version","type":"uint64","indexed":false,"internalType":"uint64"}],"anonymous":false},{"type":"event","name":"OwnershipTransferred","inputs":[{"name":"previousOwner","type":"address","indexed":true,"internalType":"address"},{"name":"newOwner","type":"address","indexed":true,"internalType":"address"}],"anonymous":false},{"type":"event","name":"WithdrawalRequest","inputs":[{"name":"_to","type":"address","indexed":true,"internalType":"address"},{"name":"_token","type":"address","indexed":true,"internalType":"contract IERC20"},{"name":"_amount","type":"uint256","indexed":true,"internalType":"uint256"}],"anonymous":false},{"type":"error","name":"AddressEmptyCode","inputs":[{"name":"target","type":"address","internalType":"address"}]},{"type":"error","name":"AddressInsufficientBalance","inputs":[{"name":"account","type":"address","internalType":"address"}]},{"type":"error","name":"EtherDepositsNotAllowed","inputs":[]},{"type":"error","name":"FailedInnerCall","inputs":[]},{"type":"error","name":"InsufficientBalanceInFaucet","inputs":[{"name":"available","type":"uint256","internalType":"uint256"},{"name":"required","type":"uint256","internalType":"uint256"}]},{"type":"error","name":"InsufficientEthBalanceOfWallet","inputs":[{"name":"available","type":"uint256","internalType":"uint256"},{"name":"required","type":"uint256","internalType":"uint256"}]},{"type":"error","name":"InvalidInitialization","inputs":[]},{"type":"error","name":"NotInitializing","inputs":[]},{"type":"error","name":"OwnableInvalidOwner","inputs":[{"name":"owner","type":"address","internalType":"address"}]},{"type":"error","name":"OwnableUnauthorizedAccount","inputs":[{"name":"account","type":"address","internalType":"address"}]},{"type":"error","name":"SafeERC20FailedOperation","inputs":[{"name":"token","type":"address","internalType":"address"}]},{"type":"error","name":"TimeLimitCantBeZero","inputs":[]},{"type":"error","name":"TimeLimitHasNotPassed","inputs":[{"name":"currentTime","type":"uint256","internalType":"uint256"},{"name":"lastRequestTime","type":"uint256","internalType":"uint256"}]},{"type":"error","name":"UnsupportedToken","inputs":[]}],"bytecode":{"object":"0x6080604052348015600f57600080fd5b50610d6b8061001f6000396000f3fe6080604052600436106100ab5760003560e01c8063a037eca911610064578063a037eca9146101cd578063a0e2e5f6146101ed578063c08d1fe51461021a578063da35a26f14610230578063e2889c8214610250578063f2fde38b1461027057600080fd5b80633313877d146100ce578063458ea5fd146101195780635a15f49414610149578063715018a61461016b57806389476069146101805780638da5cb5b146101a057600080fd5b366100c957604051630133138760e11b815260040160405180910390fd5b600080fd5b3480156100da57600080fd5b506101066100e9366004610b5d565b600260209081526000928352604080842090915290825290205481565b6040519081526020015b60405180910390f35b34801561012557600080fd5b50610139610134366004610b96565b610290565b6040519015158152602001610110565b34801561015557600080fd5b50610169610164366004610c0d565b6102db565b005b34801561017757600080fd5b506101696102ff565b34801561018c57600080fd5b5061016961019b366004610c39565b610313565b3480156101ac57600080fd5b506101b56103d9565b6040516001600160a01b039091168152602001610110565b3480156101d957600080fd5b506101396101e8366004610c39565b610407565b3480156101f957600080fd5b50610106610208366004610c39565b60016020526000908152604090205481565b34801561022657600080fd5b5061010660005481565b34801561023c57600080fd5b5061016961024b366004610c56565b6106af565b34801561025c57600080fd5b5061016961026b366004610c7b565b6107e6565b34801561027c57600080fd5b5061016961028b366004610c39565b610814565b6000805b828110156102cf576102c68484838181106102b1576102b1610c94565b90506020020160208101906101e89190610c39565b50600101610294565b50600190505b92915050565b6102e3610852565b6001600160a01b03909116600090815260016020526040902055565b610307610852565b6103116000610884565b565b61031b610852565b6040516370a0823160e01b81523060048201526000906001600160a01b038316906370a0823190602401602060405180830381865afa158015610362573d6000803e3d6000fd5b505050506040513d601f19601f820116820180604052508101906103869190610caa565b9050806001816103b75760405163ce3c6c8360e01b8152600481019290925260248201526044015b60405180910390fd5b50506103d56103c46103d9565b6001600160a01b03841690836108f5565b5050565b7f9016d09d72d40fdae2fd8ceac6b6234c7706214fd39c1cd1e609a0528c199300546001600160a01b031690565b600067016345785d8a0000338031908290318111156104425760405163580d878160e01b8152600481019290925260248201526044016103ae565b50506001600160a01b038316600090815260016020526040812054900361047c5760405163350b944160e11b815260040160405180910390fd5b6001600160a01b038316600081815260016020526040908190205490516370a0823160e01b81523060048201529091906370a0823190602401602060405180830381865afa1580156104d2573d6000803e3d6000fd5b505050506040513d601f19601f820116820180604052508101906104f69190610caa565b6040516370a0823160e01b8152306004820152911115906001600160a01b038516906370a0823190602401602060405180830381865afa15801561053e573d6000803e3d6000fd5b505050506040513d601f19601f820116820180604052508101906105629190610caa565b6001600160a01b03851660009081526001602052604090205490916105a35760405163ce3c6c8360e01b8152600481019290925260248201526044016103ae565b5050600080543382526002602090815260408084206001600160a01b0388168552909152909120546105d59190610cc3565b3360009081526002602090815260408083206001600160a01b038816845290915290205442918210156106245760405163aeb1cf5760e01b8152600481019290925260248201526044016103ae565b50503360008181526002602090815260408083206001600160a01b03881680855290835281842042905560019092529091205461066192906108f5565b6001600160a01b03831660008181526001602052604080822054905190929133917f194b054fe9183adcdbc9c27a49a3419929c6291c5ab71c5f999e50ff1efa8ac29190a450600192915050565b7ff0c57e16840df040f15088dc2f81fe391c3923bec73e23a9662efc9c229c6a008054600160401b810460ff16159067ffffffffffffffff166000811580156106f55750825b905060008267ffffffffffffffff1660011480156107125750303b155b905081158015610720575080155b1561073e5760405163f92ee8a960e01b815260040160405180910390fd5b845467ffffffffffffffff19166001178555831561076857845460ff60401b1916600160401b1785555b6107718661094c565b8660000361079257604051632df66fcb60e01b815260040160405180910390fd5b600087905583156107dd57845460ff60401b19168555604051600181527fc7f505b2f371ae2175ee4913f4499e1f2633a7b5936321eed1cdaeb6115181d29060200160405180910390a15b50505050505050565b6107ee610852565b8060000361080f57604051632df66fcb60e01b815260040160405180910390fd5b600055565b61081c610852565b6001600160a01b03811661084657604051631e4fbdf760e01b8152600060048201526024016103ae565b61084f81610884565b50565b3361085b6103d9565b6001600160a01b0316146103115760405163118cdaa760e01b81523360048201526024016103ae565b7f9016d09d72d40fdae2fd8ceac6b6234c7706214fd39c1cd1e609a0528c19930080546001600160a01b031981166001600160a01b03848116918217845560405192169182907f8be0079c531659141344cd1fd0a4f28419497f9722a3daafe3b4186f6b6457e090600090a3505050565b604080516001600160a01b038416602482015260448082018490528251808303909101815260649091019091526020810180516001600160e01b031663a9059cbb60e01b17905261094790849061095d565b505050565b6109546109c0565b61084f81610a09565b60006109726001600160a01b03841683610a11565b905080516000141580156109975750808060200190518101906109959190610ce4565b155b1561094757604051635274afe760e01b81526001600160a01b03841660048201526024016103ae565b7ff0c57e16840df040f15088dc2f81fe391c3923bec73e23a9662efc9c229c6a0054600160401b900460ff1661031157604051631afcd79f60e31b815260040160405180910390fd5b61081c6109c0565b6060610a1f83836000610a26565b9392505050565b606081471015610a4b5760405163cd78605960e01b81523060048201526024016103ae565b600080856001600160a01b03168486604051610a679190610d06565b60006040518083038185875af1925050503d8060008114610aa4576040519150601f19603f3d011682016040523d82523d6000602084013e610aa9565b606091505b5091509150610ab9868383610ac3565b9695505050505050565b606082610ad857610ad382610b1f565b610a1f565b8151158015610aef57506001600160a01b0384163b155b15610b1857604051639996b31560e01b81526001600160a01b03851660048201526024016103ae565b5080610a1f565b805115610b2f5780518082602001fd5b604051630a12f52160e11b815260040160405180910390fd5b6001600160a01b038116811461084f57600080fd5b60008060408385031215610b7057600080fd5b8235610b7b81610b48565b91506020830135610b8b81610b48565b809150509250929050565b60008060208385031215610ba957600080fd5b823567ffffffffffffffff811115610bc057600080fd5b8301601f81018513610bd157600080fd5b803567ffffffffffffffff811115610be857600080fd5b8560208260051b8401011115610bfd57600080fd5b6020919091019590945092505050565b60008060408385031215610c2057600080fd5b8235610c2b81610b48565b946020939093013593505050565b600060208284031215610c4b57600080fd5b8135610a1f81610b48565b60008060408385031215610c6957600080fd5b823591506020830135610b8b81610b48565b600060208284031215610c8d57600080fd5b5035919050565b634e487b7160e01b600052603260045260246000fd5b600060208284031215610cbc57600080fd5b5051919050565b808201808211156102d557634e487b7160e01b600052601160045260246000fd5b600060208284031215610cf657600080fd5b81518015158114610a1f57600080fd5b6000825160005b81811015610d275760208186018101518583015201610d0d565b50600092019182525091905056fea2646970667358221220982c946869d60ac98172adaa897eb539676bf98829e31b5da7a309df3024989564736f6c634300081b0033","linkReferences":{}},"methodIdentifiers":{"initialize(uint256,address)":"da35a26f","lastTokenRequestTime(address,address)":"3313877d","owner()":"8da5cb5b","renounceOwnership()":"715018a6","requestMultipleTokens(address[])":"458ea5fd","requestToken(address)":"a037eca9","setTimeLimit(uint256)":"e2889c82","setTokenAmount(address,uint256)":"5a15f494","timeLimit()":"c08d1fe5","tokenAmounts(address)":"a0e2e5f6","transferOwnership(address)":"f2fde38b","withdrawToken(address)":"89476069"},"id":3}