{"abi":[{"type":"receive","stateMutability":"payable"},{"type":"function","name":"initialize","inputs":[{"name":"_timeLimit","type":"uint256","internalType":"uint256"},{"name":"_initialOwner","type":"address","internalType":"address"}],"outputs":[],"stateMutability":"nonpayable"},{"type":"function","name":"lastTokenRequestTime","inputs":[{"name":"","type":"address","internalType":"address"},{"name":"","type":"address","internalType":"contract IERC20"}],"outputs":[{"name":"","type":"uint256","internalType":"uint256"}],"stateMutability":"view"},{"type":"function","name":"minBalance","inputs":[],"outputs":[{"name":"","type":"uint256","internalType":"uint256"}],"stateMutability":"view"},{"type":"function","name":"owner","inputs":[],"outputs":[{"name":"","type":"address","internalType":"address"}],"stateMutability":"view"},{"type":"function","name":"renounceOwnership","inputs":[],"outputs":[],"stateMutability":"nonpayable"},{"type":"function","name":"requestMultipleTokens","inputs":[{"name":"_tokens","type":"address[]","internalType":"contract IERC20[]"}],"outputs":[{"name":"","type":"bool","internalType":"bool"}],"stateMutability":"nonpayable"},{"type":"function","name":"requestToken","inputs":[{"name":"_token","type":"address","internalType":"contract IERC20"}],"outputs":[{"name":"","type":"bool","internalType":"bool"}],"stateMutability":"nonpayable"},{"type":"function","name":"setMinBal","inputs":[{"name":"_minBalance","type":"uint256","internalType":"uint256"}],"outputs":[],"stateMutability":"nonpayable"},{"type":"function","name":"setTimeLimit","inputs":[{"name":"_timeLimit","type":"uint256","internalType":"uint256"}],"outputs":[],"stateMutability":"nonpayable"},{"type":"function","name":"setTokenAmount","inputs":[{"name":"_token","type":"address","internalType":"contract IERC20"},{"name":"_amount","type":"uint256","internalType":"uint256"}],"outputs":[],"stateMutability":"nonpayable"},{"type":"function","name":"timeLimit","inputs":[],"outputs":[{"name":"","type":"uint256","internalType":"uint256"}],"stateMutability":"view"},{"type":"function","name":"tokenAmounts","inputs":[{"name":"","type":"address","internalType":"contract IERC20"}],"outputs":[{"name":"","type":"uint256","internalType":"uint256"}],"stateMutability":"view"},{"type":"function","name":"transferOwnership","inputs":[{"name":"newOwner","type":"address","internalType":"address"}],"outputs":[],"stateMutability":"nonpayable"},{"type":"function","name":"withdrawToken","inputs":[{"name":"_token","type":"address","internalType":"contract IERC20"}],"outputs":[],"stateMutability":"nonpayable"},{"type":"event","name":"Initialized","inputs":[{"name":"version","type":"uint64","indexed":false,"internalType":"uint64"}],"anonymous":false},{"type":"event","name":"OwnershipTransferred","inputs":[{"name":"previousOwner","type":"address","indexed":true,"internalType":"address"},{"name":"newOwner","type":"address","indexed":true,"internalType":"address"}],"anonymous":false},{"type":"event","name":"WithdrawalRequest","inputs":[{"name":"_to","type":"address","indexed":true,"internalType":"address"},{"name":"_token","type":"address","indexed":true,"internalType":"contract IERC20"},{"name":"_amount","type":"uint256","indexed":true,"internalType":"uint256"}],"anonymous":false},{"type":"error","name":"AddressEmptyCode","inputs":[{"name":"target","type":"address","internalType":"address"}]},{"type":"error","name":"AddressInsufficientBalance","inputs":[{"name":"account","type":"address","internalType":"address"}]},{"type":"error","name":"EtherDepositsNotAllowed","inputs":[]},{"type":"error","name":"FailedInnerCall","inputs":[]},{"type":"error","name":"InsufficientBalanceInFaucet","inputs":[{"name":"available","type":"uint256","internalType":"uint256"},{"name":"required","type":"uint256","internalType":"uint256"}]},{"type":"error","name":"InsufficientEthBalanceOfWallet","inputs":[{"name":"available","type":"uint256","internalType":"uint256"},{"name":"required","type":"uint256","internalType":"uint256"}]},{"type":"error","name":"InvalidInitialization","inputs":[]},{"type":"error","name":"NotInitializing","inputs":[]},{"type":"error","name":"OwnableInvalidOwner","inputs":[{"name":"owner","type":"address","internalType":"address"}]},{"type":"error","name":"OwnableUnauthorizedAccount","inputs":[{"name":"account","type":"address","internalType":"address"}]},{"type":"error","name":"SafeERC20FailedOperation","inputs":[{"name":"token","type":"address","internalType":"address"}]},{"type":"error","name":"TimeLimitCantBeZero","inputs":[]},{"type":"error","name":"TimeLimitHasNotPassed","inputs":[{"name":"currentTime","type":"uint256","internalType":"uint256"},{"name":"lastRequestTime","type":"uint256","internalType":"uint256"}]},{"type":"error","name":"UnsupportedToken","inputs":[]}],"bytecode":{"object":"0x6080604052348015600f57600080fd5b50610dd78061001f6000396000f3fe6080604052600436106100e15760003560e01c8063a037eca91161007f578063c5bb875811610059578063c5bb875814610286578063da35a26f1461029c578063e2889c82146102bc578063f2fde38b146102dc57600080fd5b8063a037eca914610223578063a0e2e5f614610243578063c08d1fe51461027057600080fd5b80635a15f494116100bb5780635a15f494146101a1578063715018a6146101c157806389476069146101d65780638da5cb5b146101f657600080fd5b80633313877d1461010457806339cb55471461014f578063458ea5fd1461017157600080fd5b366100ff57604051630133138760e11b815260040160405180910390fd5b600080fd5b34801561011057600080fd5b5061013c61011f366004610bc9565b600260209081526000928352604080842090915290825290205481565b6040519081526020015b60405180910390f35b34801561015b57600080fd5b5061016f61016a366004610c02565b600355565b005b34801561017d57600080fd5b5061019161018c366004610c1b565b6102fc565b6040519015158152602001610146565b3480156101ad57600080fd5b5061016f6101bc366004610c92565b610347565b3480156101cd57600080fd5b5061016f61036b565b3480156101e257600080fd5b5061016f6101f1366004610cbe565b61037f565b34801561020257600080fd5b5061020b610445565b6040516001600160a01b039091168152602001610146565b34801561022f57600080fd5b5061019161023e366004610cbe565b610473565b34801561024f57600080fd5b5061013c61025e366004610cbe565b60016020526000908152604090205481565b34801561027c57600080fd5b5061013c60005481565b34801561029257600080fd5b5061013c60035481565b3480156102a857600080fd5b5061016f6102b7366004610cdb565b61071b565b3480156102c857600080fd5b5061016f6102d7366004610c02565b610852565b3480156102e857600080fd5b5061016f6102f7366004610cbe565b610880565b6000805b8281101561033b5761033284848381811061031d5761031d610d00565b905060200201602081019061023e9190610cbe565b50600101610300565b50600190505b92915050565b61034f6108be565b6001600160a01b03909116600090815260016020526040902055565b6103736108be565b61037d60006108f0565b565b6103876108be565b6040516370a0823160e01b81523060048201526000906001600160a01b038316906370a0823190602401602060405180830381865afa1580156103ce573d6000803e3d6000fd5b505050506040513d601f19601f820116820180604052508101906103f29190610d16565b9050806001816104235760405163ce3c6c8360e01b8152600481019290925260248201526044015b60405180910390fd5b5050610441610430610445565b6001600160a01b0384169083610961565b5050565b7f9016d09d72d40fdae2fd8ceac6b6234c7706214fd39c1cd1e609a0528c199300546001600160a01b031690565b600067016345785d8a0000338031908290318111156104ae5760405163580d878160e01b81526004810192909252602482015260440161041a565b50506001600160a01b03831660009081526001602052604081205490036104e85760405163350b944160e11b815260040160405180910390fd5b6001600160a01b038316600081815260016020526040908190205490516370a0823160e01b81523060048201529091906370a0823190602401602060405180830381865afa15801561053e573d6000803e3d6000fd5b505050506040513d601f19601f820116820180604052508101906105629190610d16565b6040516370a0823160e01b8152306004820152911115906001600160a01b038516906370a0823190602401602060405180830381865afa1580156105aa573d6000803e3d6000fd5b505050506040513d601f19601f820116820180604052508101906105ce9190610d16565b6001600160a01b038516600090815260016020526040902054909161060f5760405163ce3c6c8360e01b81526004810192909252602482015260440161041a565b5050600080543382526002602090815260408084206001600160a01b0388168552909152909120546106419190610d2f565b3360009081526002602090815260408083206001600160a01b038816845290915290205442918210156106905760405163aeb1cf5760e01b81526004810192909252602482015260440161041a565b50503360008181526002602090815260408083206001600160a01b0388168085529083528184204290556001909252909120546106cd9290610961565b6001600160a01b03831660008181526001602052604080822054905190929133917f194b054fe9183adcdbc9c27a49a3419929c6291c5ab71c5f999e50ff1efa8ac29190a450600192915050565b7ff0c57e16840df040f15088dc2f81fe391c3923bec73e23a9662efc9c229c6a008054600160401b810460ff16159067ffffffffffffffff166000811580156107615750825b905060008267ffffffffffffffff16600114801561077e5750303b155b90508115801561078c575080155b156107aa5760405163f92ee8a960e01b815260040160405180910390fd5b845467ffffffffffffffff1916600117855583156107d457845460ff60401b1916600160401b1785555b6107dd866109b8565b866000036107fe57604051632df66fcb60e01b815260040160405180910390fd5b6000879055831561084957845460ff60401b19168555604051600181527fc7f505b2f371ae2175ee4913f4499e1f2633a7b5936321eed1cdaeb6115181d29060200160405180910390a15b50505050505050565b61085a6108be565b8060000361087b57604051632df66fcb60e01b815260040160405180910390fd5b600055565b6108886108be565b6001600160a01b0381166108b257604051631e4fbdf760e01b81526000600482015260240161041a565b6108bb816108f0565b50565b336108c7610445565b6001600160a01b03161461037d5760405163118cdaa760e01b815233600482015260240161041a565b7f9016d09d72d40fdae2fd8ceac6b6234c7706214fd39c1cd1e609a0528c19930080546001600160a01b031981166001600160a01b03848116918217845560405192169182907f8be0079c531659141344cd1fd0a4f28419497f9722a3daafe3b4186f6b6457e090600090a3505050565b604080516001600160a01b038416602482015260448082018490528251808303909101815260649091019091526020810180516001600160e01b031663a9059cbb60e01b1790526109b39084906109c9565b505050565b6109c0610a2c565b6108bb81610a75565b60006109de6001600160a01b03841683610a7d565b90508051600014158015610a03575080806020019051810190610a019190610d50565b155b156109b357604051635274afe760e01b81526001600160a01b038416600482015260240161041a565b7ff0c57e16840df040f15088dc2f81fe391c3923bec73e23a9662efc9c229c6a0054600160401b900460ff1661037d57604051631afcd79f60e31b815260040160405180910390fd5b610888610a2c565b6060610a8b83836000610a92565b9392505050565b606081471015610ab75760405163cd78605960e01b815230600482015260240161041a565b600080856001600160a01b03168486604051610ad39190610d72565b60006040518083038185875af1925050503d8060008114610b10576040519150601f19603f3d011682016040523d82523d6000602084013e610b15565b606091505b5091509150610b25868383610b2f565b9695505050505050565b606082610b4457610b3f82610b8b565b610a8b565b8151158015610b5b57506001600160a01b0384163b155b15610b8457604051639996b31560e01b81526001600160a01b038516600482015260240161041a565b5080610a8b565b805115610b9b5780518082602001fd5b604051630a12f52160e11b815260040160405180910390fd5b6001600160a01b03811681146108bb57600080fd5b60008060408385031215610bdc57600080fd5b8235610be781610bb4565b91506020830135610bf781610bb4565b809150509250929050565b600060208284031215610c1457600080fd5b5035919050565b60008060208385031215610c2e57600080fd5b823567ffffffffffffffff811115610c4557600080fd5b8301601f81018513610c5657600080fd5b803567ffffffffffffffff811115610c6d57600080fd5b8560208260051b8401011115610c8257600080fd5b6020919091019590945092505050565b60008060408385031215610ca557600080fd5b8235610cb081610bb4565b946020939093013593505050565b600060208284031215610cd057600080fd5b8135610a8b81610bb4565b60008060408385031215610cee57600080fd5b823591506020830135610bf781610bb4565b634e487b7160e01b600052603260045260246000fd5b600060208284031215610d2857600080fd5b5051919050565b8082018082111561034157634e487b7160e01b600052601160045260246000fd5b600060208284031215610d6257600080fd5b81518015158114610a8b57600080fd5b6000825160005b81811015610d935760208186018101518583015201610d79565b50600092019182525091905056fea26469706673582212209dd85255fab9d25a9eb3d7f99097f88c7e6bc9045a96bbe111b6d9c5645c2eda64736f6c634300081b0033","linkReferences":{}},"methodIdentifiers":{"initialize(uint256,address)":"da35a26f","lastTokenRequestTime(address,address)":"3313877d","minBalance()":"c5bb8758","owner()":"8da5cb5b","renounceOwnership()":"715018a6","requestMultipleTokens(address[])":"458ea5fd","requestToken(address)":"a037eca9","setMinBal(uint256)":"39cb5547","setTimeLimit(uint256)":"e2889c82","setTokenAmount(address,uint256)":"5a15f494","timeLimit()":"c08d1fe5","tokenAmounts(address)":"a0e2e5f6","transferOwnership(address)":"f2fde38b","withdrawToken(address)":"89476069"},"id":4}