{
  "_format": "hh-sol-artifact-1",
  "contractName": "FaucetV1",
  "sourceName": "contracts/TransparentProxy/FaucetV1.sol",
  "abi": [
    {
      "inputs": [
        {
          "internalType": "address",
          "name": "target",
          "type": "address"
        }
      ],
      "name": "AddressEmptyCode",
      "type": "error"
    },
    {
      "inputs": [
        {
          "internalType": "address",
          "name": "account",
          "type": "address"
        }
      ],
      "name": "AddressInsufficientBalance",
      "type": "error"
    },
    {
      "inputs": [],
      "name": "EtherDepositsNotAllowed",
      "type": "error"
    },
    {
      "inputs": [],
      "name": "FailedInnerCall",
      "type": "error"
    },
    {
      "inputs": [
        {
          "internalType": "uint256",
          "name": "available",
          "type": "uint256"
        },
        {
          "internalType": "uint256",
          "name": "required",
          "type": "uint256"
        }
      ],
      "name": "InsufficientBalanceInFaucet",
      "type": "error"
    },
    {
      "inputs": [
        {
          "internalType": "uint256",
          "name": "available",
          "type": "uint256"
        },
        {
          "internalType": "uint256",
          "name": "required",
          "type": "uint256"
        }
      ],
      "name": "InsufficientEthBalanceOfWallet",
      "type": "error"
    },
    {
      "inputs": [],
      "name": "InvalidInitialization",
      "type": "error"
    },
    {
      "inputs": [],
      "name": "NotInitializing",
      "type": "error"
    },
    {
      "inputs": [
        {
          "internalType": "address",
          "name": "owner",
          "type": "address"
        }
      ],
      "name": "OwnableInvalidOwner",
      "type": "error"
    },
    {
      "inputs": [
        {
          "internalType": "address",
          "name": "account",
          "type": "address"
        }
      ],
      "name": "OwnableUnauthorizedAccount",
      "type": "error"
    },
    {
      "inputs": [
        {
          "internalType": "address",
          "name": "token",
          "type": "address"
        }
      ],
      "name": "SafeERC20FailedOperation",
      "type": "error"
    },
    {
      "inputs": [],
      "name": "TimeLimitCantBeZero",
      "type": "error"
    },
    {
      "inputs": [
        {
          "internalType": "uint256",
          "name": "currentTime",
          "type": "uint256"
        },
        {
          "internalType": "uint256",
          "name": "lastRequestTime",
          "type": "uint256"
        }
      ],
      "name": "TimeLimitHasNotPassed",
      "type": "error"
    },
    {
      "inputs": [],
      "name": "UnsupportedToken",
      "type": "error"
    },
    {
      "anonymous": false,
      "inputs": [
        {
          "indexed": false,
          "internalType": "uint64",
          "name": "version",
          "type": "uint64"
        }
      ],
      "name": "Initialized",
      "type": "event"
    },
    {
      "anonymous": false,
      "inputs": [
        {
          "indexed": true,
          "internalType": "address",
          "name": "previousOwner",
          "type": "address"
        },
        {
          "indexed": true,
          "internalType": "address",
          "name": "newOwner",
          "type": "address"
        }
      ],
      "name": "OwnershipTransferred",
      "type": "event"
    },
    {
      "anonymous": false,
      "inputs": [
        {
          "indexed": true,
          "internalType": "address",
          "name": "_to",
          "type": "address"
        },
        {
          "indexed": true,
          "internalType": "contract IERC20",
          "name": "_token",
          "type": "address"
        },
        {
          "indexed": true,
          "internalType": "uint256",
          "name": "_amount",
          "type": "uint256"
        }
      ],
      "name": "WithdrawalRequest",
      "type": "event"
    },
    {
      "inputs": [
        {
          "internalType": "uint256",
          "name": "_timeLimit",
          "type": "uint256"
        }
      ],
      "name": "initialize",
      "outputs": [],
      "stateMutability": "nonpayable",
      "type": "function"
    },
    {
      "inputs": [
        {
          "internalType": "address",
          "name": "",
          "type": "address"
        },
        {
          "internalType": "contract IERC20",
          "name": "",
          "type": "address"
        }
      ],
      "name": "lastTokenRequestTime",
      "outputs": [
        {
          "internalType": "uint256",
          "name": "",
          "type": "uint256"
        }
      ],
      "stateMutability": "view",
      "type": "function"
    },
    {
      "inputs": [],
      "name": "owner",
      "outputs": [
        {
          "internalType": "address",
          "name": "",
          "type": "address"
        }
      ],
      "stateMutability": "view",
      "type": "function"
    },
    {
      "inputs": [],
      "name": "renounceOwnership",
      "outputs": [],
      "stateMutability": "nonpayable",
      "type": "function"
    },
    {
      "inputs": [
        {
          "internalType": "contract IERC20[]",
          "name": "_tokens",
          "type": "address[]"
        }
      ],
      "name": "requestMultipleTokens",
      "outputs": [
        {
          "internalType": "bool",
          "name": "",
          "type": "bool"
        }
      ],
      "stateMutability": "nonpayable",
      "type": "function"
    },
    {
      "inputs": [
        {
          "internalType": "contract IERC20",
          "name": "_token",
          "type": "address"
        }
      ],
      "name": "requestToken",
      "outputs": [
        {
          "internalType": "bool",
          "name": "",
          "type": "bool"
        }
      ],
      "stateMutability": "nonpayable",
      "type": "function"
    },
    {
      "inputs": [
        {
          "internalType": "uint256",
          "name": "_timeLimit",
          "type": "uint256"
        }
      ],
      "name": "setTimeLimit",
      "outputs": [],
      "stateMutability": "nonpayable",
      "type": "function"
    },
    {
      "inputs": [
        {
          "internalType": "contract IERC20",
          "name": "_token",
          "type": "address"
        },
        {
          "internalType": "uint256",
          "name": "_amount",
          "type": "uint256"
        }
      ],
      "name": "setTokenAmount",
      "outputs": [],
      "stateMutability": "nonpayable",
      "type": "function"
    },
    {
      "inputs": [],
      "name": "timeLimit",
      "outputs": [
        {
          "internalType": "uint256",
          "name": "",
          "type": "uint256"
        }
      ],
      "stateMutability": "view",
      "type": "function"
    },
    {
      "inputs": [
        {
          "internalType": "contract IERC20",
          "name": "",
          "type": "address"
        }
      ],
      "name": "tokenAmounts",
      "outputs": [
        {
          "internalType": "uint256",
          "name": "",
          "type": "uint256"
        }
      ],
      "stateMutability": "view",
      "type": "function"
    },
    {
      "inputs": [
        {
          "internalType": "address",
          "name": "newOwner",
          "type": "address"
        }
      ],
      "name": "transferOwnership",
      "outputs": [],
      "stateMutability": "nonpayable",
      "type": "function"
    },
    {
      "inputs": [
        {
          "internalType": "contract IERC20",
          "name": "_token",
          "type": "address"
        }
      ],
      "name": "withdrawToken",
      "outputs": [],
      "stateMutability": "nonpayable",
      "type": "function"
    },
    {
      "stateMutability": "payable",
      "type": "receive"
    }
  ],
  "bytecode": "0x6080604052348015600f57600080fd5b5061193b8061001f6000396000f3fe6080604052600436106100ab5760003560e01c8063a037eca911610064578063a037eca9146101f5578063a0e2e5f614610232578063c08d1fe51461026f578063e2889c821461029a578063f2fde38b146102c3578063fe4b84df146102ec576100e2565b80633313877d146100e7578063458ea5fd146101245780635a15f49414610161578063715018a61461018a57806389476069146101a15780638da5cb5b146101ca576100e2565b366100e2576040517f0266270e00000000000000000000000000000000000000000000000000000000815260040160405180910390fd5b600080fd5b3480156100f357600080fd5b5061010e600480360381019061010991906113b7565b610315565b60405161011b9190611410565b60405180910390f35b34801561013057600080fd5b5061014b60048036038101906101469190611490565b61033a565b60405161015891906114f8565b60405180910390f35b34801561016d57600080fd5b506101886004803603810190610183919061153f565b610396565b005b34801561019657600080fd5b5061019f6103e6565b005b3480156101ad57600080fd5b506101c860048036038101906101c3919061157f565b6103fa565b005b3480156101d657600080fd5b506101df610502565b6040516101ec91906115bb565b60405180910390f35b34801561020157600080fd5b5061021c6004803603810190610217919061157f565b61053a565b60405161022991906114f8565b60405180910390f35b34801561023e57600080fd5b506102596004803603810190610254919061157f565b610ad4565b6040516102669190611410565b60405180910390f35b34801561027b57600080fd5b50610284610aec565b6040516102919190611410565b60405180910390f35b3480156102a657600080fd5b506102c160048036038101906102bc91906115d6565b610af2565b005b3480156102cf57600080fd5b506102ea60048036038101906102e59190611603565b610b3e565b005b3480156102f857600080fd5b50610313600480360381019061030e91906115d6565b610bc4565b005b6002602052816000526040600020602052806000526040600020600091509150505481565b600080600090505b8383905081101561038b5761037d84848381811061036357610362611630565b5b9050602002016020810190610378919061157f565b61053a565b508080600101915050610342565b506001905092915050565b61039e610d94565b80600160008473ffffffffffffffffffffffffffffffffffffffff1673ffffffffffffffffffffffffffffffffffffffff168152602001908152602001600020819055505050565b6103ee610d94565b6103f86000610e1b565b565b610402610d94565b60008173ffffffffffffffffffffffffffffffffffffffff166370a08231306040518263ffffffff1660e01b815260040161043d91906115bb565b602060405180830381865afa15801561045a573d6000803e3d6000fd5b505050506040513d601f19601f8201168201806040525081019061047e9190611674565b90506000811181600190916104ca576040517fce3c6c830000000000000000000000000000000000000000000000000000000081526004016104c19291906116e6565b60405180910390fd5b50506104fe6104d7610502565b828473ffffffffffffffffffffffffffffffffffffffff16610ef29092919063ffffffff16565b5050565b60008061050d610f71565b90508060000160009054906101000a900473ffffffffffffffffffffffffffffffffffffffff1691505090565b60008067016345785d8a00009050803373ffffffffffffffffffffffffffffffffffffffff163110153373ffffffffffffffffffffffffffffffffffffffff16318290916105bf576040517f580d87810000000000000000000000000000000000000000000000000000000081526004016105b692919061170f565b60405180910390fd5b50506000600160008573ffffffffffffffffffffffffffffffffffffffff1673ffffffffffffffffffffffffffffffffffffffff168152602001908152602001600020540361063a576040517f6a17288200000000000000000000000000000000000000000000000000000000815260040160405180910390fd5b600160008473ffffffffffffffffffffffffffffffffffffffff1673ffffffffffffffffffffffffffffffffffffffff168152602001908152602001600020548373ffffffffffffffffffffffffffffffffffffffff166370a08231306040518263ffffffff1660e01b81526004016106b391906115bb565b602060405180830381865afa1580156106d0573d6000803e3d6000fd5b505050506040513d601f19601f820116820180604052508101906106f49190611674565b10158373ffffffffffffffffffffffffffffffffffffffff166370a08231306040518263ffffffff1660e01b815260040161072f91906115bb565b602060405180830381865afa15801561074c573d6000803e3d6000fd5b505050506040513d601f19601f820116820180604052508101906107709190611674565b600160008673ffffffffffffffffffffffffffffffffffffffff1673ffffffffffffffffffffffffffffffffffffffff1681526020019081526020016000205490916107f3576040517fce3c6c830000000000000000000000000000000000000000000000000000000081526004016107ea92919061170f565b60405180910390fd5b5050600054600260003373ffffffffffffffffffffffffffffffffffffffff1673ffffffffffffffffffffffffffffffffffffffff16815260200190815260200160002060008573ffffffffffffffffffffffffffffffffffffffff1673ffffffffffffffffffffffffffffffffffffffff1681526020019081526020016000205461087f9190611767565b42101542600260003373ffffffffffffffffffffffffffffffffffffffff1673ffffffffffffffffffffffffffffffffffffffff16815260200190815260200160002060008673ffffffffffffffffffffffffffffffffffffffff1673ffffffffffffffffffffffffffffffffffffffff168152602001908152602001600020549091610943576040517faeb1cf5700000000000000000000000000000000000000000000000000000000815260040161093a92919061170f565b60405180910390fd5b505042600260003373ffffffffffffffffffffffffffffffffffffffff1673ffffffffffffffffffffffffffffffffffffffff16815260200190815260200160002060008573ffffffffffffffffffffffffffffffffffffffff1673ffffffffffffffffffffffffffffffffffffffff16815260200190815260200160002081905550610a3033600160008673ffffffffffffffffffffffffffffffffffffffff1673ffffffffffffffffffffffffffffffffffffffff168152602001908152602001600020548573ffffffffffffffffffffffffffffffffffffffff16610ef29092919063ffffffff16565b600160008473ffffffffffffffffffffffffffffffffffffffff1673ffffffffffffffffffffffffffffffffffffffff168152602001908152602001600020548373ffffffffffffffffffffffffffffffffffffffff163373ffffffffffffffffffffffffffffffffffffffff167f194b054fe9183adcdbc9c27a49a3419929c6291c5ab71c5f999e50ff1efa8ac260405160405180910390a46001915050919050565b60016020528060005260406000206000915090505481565b60005481565b610afa610d94565b60008103610b34576040517f2df66fcb00000000000000000000000000000000000000000000000000000000815260040160405180910390fd5b8060008190555050565b610b46610d94565b600073ffffffffffffffffffffffffffffffffffffffff168173ffffffffffffffffffffffffffffffffffffffff1603610bb85760006040517f1e4fbdf7000000000000000000000000000000000000000000000000000000008152600401610baf91906115bb565b60405180910390fd5b610bc181610e1b565b50565b6000610bce610f99565b905060008160000160089054906101000a900460ff1615905060008260000160009054906101000a900467ffffffffffffffff1690506000808267ffffffffffffffff16148015610c1c5750825b9050600060018367ffffffffffffffff16148015610c51575060003073ffffffffffffffffffffffffffffffffffffffff163b145b905081158015610c5f575080155b15610c96576040517ff92ee8a900000000000000000000000000000000000000000000000000000000815260040160405180910390fd5b60018560000160006101000a81548167ffffffffffffffff021916908367ffffffffffffffff1602179055508315610ce65760018560000160086101000a81548160ff0219169083151502179055505b610cef33610fc1565b60008603610d29576040517f2df66fcb00000000000000000000000000000000000000000000000000000000815260040160405180910390fd5b856000819055508315610d8c5760008560000160086101000a81548160ff0219169083151502179055507fc7f505b2f371ae2175ee4913f4499e1f2633a7b5936321eed1cdaeb6115181d26001604051610d8391906117e0565b60405180910390a15b505050505050565b610d9c610fd5565b73ffffffffffffffffffffffffffffffffffffffff16610dba610502565b73ffffffffffffffffffffffffffffffffffffffff1614610e1957610ddd610fd5565b6040517f118cdaa7000000000000000000000000000000000000000000000000000000008152600401610e1091906115bb565b60405180910390fd5b565b6000610e25610f71565b905060008160000160009054906101000a900473ffffffffffffffffffffffffffffffffffffffff169050828260000160006101000a81548173ffffffffffffffffffffffffffffffffffffffff021916908373ffffffffffffffffffffffffffffffffffffffff1602179055508273ffffffffffffffffffffffffffffffffffffffff168173ffffffffffffffffffffffffffffffffffffffff167f8be0079c531659141344cd1fd0a4f28419497f9722a3daafe3b4186f6b6457e060405160405180910390a3505050565b610f6c838473ffffffffffffffffffffffffffffffffffffffff1663a9059cbb8585604051602401610f259291906117fb565b604051602081830303815290604052915060e01b6020820180517bffffffffffffffffffffffffffffffffffffffffffffffffffffffff8381831617835250505050610fdd565b505050565b60007f9016d09d72d40fdae2fd8ceac6b6234c7706214fd39c1cd1e609a0528c199300905090565b60007ff0c57e16840df040f15088dc2f81fe391c3923bec73e23a9662efc9c229c6a00905090565b610fc9611074565b610fd2816110b4565b50565b600033905090565b6000611008828473ffffffffffffffffffffffffffffffffffffffff1661113a90919063ffffffff16565b9050600081511415801561102d57508080602001905181019061102b9190611850565b155b1561106f57826040517f5274afe700000000000000000000000000000000000000000000000000000000815260040161106691906115bb565b60405180910390fd5b505050565b61107c611150565b6110b2576040517fd7e6bcf800000000000000000000000000000000000000000000000000000000815260040160405180910390fd5b565b6110bc611074565b600073ffffffffffffffffffffffffffffffffffffffff168173ffffffffffffffffffffffffffffffffffffffff160361112e5760006040517f1e4fbdf700000000000000000000000000000000000000000000000000000000815260040161112591906115bb565b60405180910390fd5b61113781610e1b565b50565b606061114883836000611170565b905092915050565b600061115a610f99565b60000160089054906101000a900460ff16905090565b6060814710156111b757306040517fcd7860590000000000000000000000000000000000000000000000000000000081526004016111ae91906115bb565b60405180910390fd5b6000808573ffffffffffffffffffffffffffffffffffffffff1684866040516111e091906118ee565b60006040518083038185875af1925050503d806000811461121d576040519150601f19603f3d011682016040523d82523d6000602084013e611222565b606091505b509150915061123286838361123d565b925050509392505050565b6060826112525761124d826112cc565b6112c4565b6000825114801561127a575060008473ffffffffffffffffffffffffffffffffffffffff163b145b156112bc57836040517f9996b3150000000000000000000000000000000000000000000000000000000081526004016112b391906115bb565b60405180910390fd5b8190506112c5565b5b9392505050565b6000815111156112df5780518082602001fd5b6040517f1425ea4200000000000000000000000000000000000000000000000000000000815260040160405180910390fd5b600080fd5b600080fd5b600073ffffffffffffffffffffffffffffffffffffffff82169050919050565b60006113468261131b565b9050919050565b6113568161133b565b811461136157600080fd5b50565b6000813590506113738161134d565b92915050565b60006113848261133b565b9050919050565b61139481611379565b811461139f57600080fd5b50565b6000813590506113b18161138b565b92915050565b600080604083850312156113ce576113cd611311565b5b60006113dc85828601611364565b92505060206113ed858286016113a2565b9150509250929050565b6000819050919050565b61140a816113f7565b82525050565b60006020820190506114256000830184611401565b92915050565b600080fd5b600080fd5b600080fd5b60008083601f8401126114505761144f61142b565b5b8235905067ffffffffffffffff81111561146d5761146c611430565b5b60208301915083602082028301111561148957611488611435565b5b9250929050565b600080602083850312156114a7576114a6611311565b5b600083013567ffffffffffffffff8111156114c5576114c4611316565b5b6114d18582860161143a565b92509250509250929050565b60008115159050919050565b6114f2816114dd565b82525050565b600060208201905061150d60008301846114e9565b92915050565b61151c816113f7565b811461152757600080fd5b50565b60008135905061153981611513565b92915050565b6000806040838503121561155657611555611311565b5b6000611564858286016113a2565b92505060206115758582860161152a565b9150509250929050565b60006020828403121561159557611594611311565b5b60006115a3848285016113a2565b91505092915050565b6115b58161133b565b82525050565b60006020820190506115d060008301846115ac565b92915050565b6000602082840312156115ec576115eb611311565b5b60006115fa8482850161152a565b91505092915050565b60006020828403121561161957611618611311565b5b600061162784828501611364565b91505092915050565b7f4e487b7100000000000000000000000000000000000000000000000000000000600052603260045260246000fd5b60008151905061166e81611513565b92915050565b60006020828403121561168a57611689611311565b5b60006116988482850161165f565b91505092915050565b6000819050919050565b6000819050919050565b60006116d06116cb6116c6846116a1565b6116ab565b6113f7565b9050919050565b6116e0816116b5565b82525050565b60006040820190506116fb6000830185611401565b61170860208301846116d7565b9392505050565b60006040820190506117246000830185611401565b6117316020830184611401565b9392505050565b7f4e487b7100000000000000000000000000000000000000000000000000000000600052601160045260246000fd5b6000611772826113f7565b915061177d836113f7565b925082820190508082111561179557611794611738565b5b92915050565b600067ffffffffffffffff82169050919050565b60006117ca6117c56117c0846116a1565b6116ab565b61179b565b9050919050565b6117da816117af565b82525050565b60006020820190506117f560008301846117d1565b92915050565b600060408201905061181060008301856115ac565b61181d6020830184611401565b9392505050565b61182d816114dd565b811461183857600080fd5b50565b60008151905061184a81611824565b92915050565b60006020828403121561186657611865611311565b5b60006118748482850161183b565b91505092915050565b600081519050919050565b600081905092915050565b60005b838110156118b1578082015181840152602081019050611896565b60008484015250505050565b60006118c88261187d565b6118d28185611888565b93506118e2818560208601611893565b80840191505092915050565b60006118fa82846118bd565b91508190509291505056fea264697066735822122044feb3203a5c9ab0bb299f02e179759c5ff741862033f9c555172980bd7652bb64736f6c634300081b0033",
  "linkReferences": {},
  "deployedLinkReferences": {}
}