{"abi":[{"type":"constructor","inputs":[{"name":"_implementation","type":"address","internalType":"address"}],"stateMutability":"nonpayable"},{"type":"function","name":"admin","inputs":[],"outputs":[{"name":"","type":"address","internalType":"address"}],"stateMutability":"view"},{"type":"function","name":"proxy","inputs":[],"outputs":[{"name":"","type":"address","internalType":"address"}],"stateMutability":"view"}],"bytecode":{"object":"0x608060405234801561001057600080fd5b5060405161165b38038061165b83398101604081905261002f91610157565b60003360405161003e9061013d565b6001600160a01b039091168152602001604051809103906000f08015801561006a573d6000803e3d6000fd5b50600080546001600160a01b0319166001600160a01b0383161781556040516201518060248201523360448201529192509060640160408051601f198184030181529181526020820180516001600160e01b031663da35a26f60e01b1790526000805491519293509185916001600160a01b03169084906100ea9061014a565b6100f693929190610187565b604051809103906000f080158015610112573d6000803e3d6000fd5b50600180546001600160a01b0319166001600160a01b0392909216919091179055506101f092505050565b61052c806102ab83390190565b610e84806107d783390190565b60006020828403121561016957600080fd5b81516001600160a01b038116811461018057600080fd5b9392505050565b6001600160a01b038481168252831660208201526060604082018190528251908201819052600090815b818110156101ce57602081860181015160808684010152016101b1565b506000608082850101526080601f19601f830116840101915050949350505050565b60ad806101fe6000396000f3fe6080604052348015600f57600080fd5b506004361060325760003560e01c8063ec556889146037578063f851a440146065575b600080fd5b6001546049906001600160a01b031681565b6040516001600160a01b03909116815260200160405180910390f35b6000546049906001600160a01b03168156fea264697066735822122097cc49a75580f672d5c4d7372a89bc4aef3375186c6e6ba126c491efb64a3fd064736f6c634300081b0033608060405234801561001057600080fd5b5060405161052c38038061052c83398101604081905261002f916100be565b806001600160a01b03811661005e57604051631e4fbdf760e01b81526000600482015260240160405180910390fd5b6100678161006e565b50506100ee565b600080546001600160a01b038381166001600160a01b0319831681178455604051919092169283917f8be0079c531659141344cd1fd0a4f28419497f9722a3daafe3b4186f6b6457e09190a35050565b6000602082840312156100d057600080fd5b81516001600160a01b03811681146100e757600080fd5b9392505050565b61042f806100fd6000396000f3fe60806040526004361061004a5760003560e01c8063715018a61461004f5780638da5cb5b146100665780639623609d14610093578063ad3cb1cc146100a6578063f2fde38b146100e4575b600080fd5b34801561005b57600080fd5b50610064610104565b005b34801561007257600080fd5b506000546040516001600160a01b0390911681526020015b60405180910390f35b6100646100a1366004610272565b610118565b3480156100b257600080fd5b506100d7604051806040016040528060058152602001640352e302e360dc1b81525081565b60405161008a9190610396565b3480156100f057600080fd5b506100646100ff3660046103b0565b610187565b61010c6101ca565b61011660006101f7565b565b6101206101ca565b60405163278f794360e11b81526001600160a01b03841690634f1ef28690349061015090869086906004016103cd565b6000604051808303818588803b15801561016957600080fd5b505af115801561017d573d6000803e3d6000fd5b5050505050505050565b61018f6101ca565b6001600160a01b0381166101be57604051631e4fbdf760e01b8152600060048201526024015b60405180910390fd5b6101c7816101f7565b50565b6000546001600160a01b031633146101165760405163118cdaa760e01b81523360048201526024016101b5565b600080546001600160a01b038381166001600160a01b0319831681178455604051919092169283917f8be0079c531659141344cd1fd0a4f28419497f9722a3daafe3b4186f6b6457e09190a35050565b6001600160a01b03811681146101c757600080fd5b634e487b7160e01b600052604160045260246000fd5b60008060006060848603121561028757600080fd5b833561029281610247565b925060208401356102a281610247565b9150604084013567ffffffffffffffff8111156102be57600080fd5b8401601f810186136102cf57600080fd5b803567ffffffffffffffff8111156102e9576102e961025c565b604051601f8201601f19908116603f0116810167ffffffffffffffff811182821017156103185761031861025c565b60405281815282820160200188101561033057600080fd5b816020840160208301376000602083830101528093505050509250925092565b6000815180845260005b818110156103765760208185018101518683018201520161035a565b506000602082860101526020601f19601f83011685010191505092915050565b6020815260006103a96020830184610350565b9392505050565b6000602082840312156103c257600080fd5b81356103a981610247565b6001600160a01b03831681526040602082018190526000906103f190830184610350565b94935050505056fea2646970667358221220e8efdf9ef196cfd6ab1e3399c07439fb6d14426050d22186942ce7946888e7e564736f6c634300081b003360a0604052604051610e84380380610e848339810160408190526100229161039d565b828161002e828261008f565b50508160405161003d9061033a565b6001600160a01b039091168152602001604051809103906000f080158015610069573d6000803e3d6000fd5b506001600160a01b031660805261008761008260805190565b6100ee565b50505061048f565b6100988261015c565b6040516001600160a01b038316907fbc7cd75a20ee27fd9adebab32041f755214dbc6bffa90cc0225b39da2e5c2d3b90600090a28051156100e2576100dd82826101db565b505050565b6100ea610252565b5050565b7f7e644d79422f17c01e4894b5f4f588d331ebfa28653d42ae832dc59e38c9798f61012e600080516020610e64833981519152546001600160a01b031690565b604080516001600160a01b03928316815291841660208301520160405180910390a161015981610273565b50565b806001600160a01b03163b60000361019757604051634c9c8ce360e01b81526001600160a01b03821660048201526024015b60405180910390fd5b807f360894a13ba1a3210667c828492db98dca3e2076cc3735a920a3ca505d382bbc5b80546001600160a01b0319166001600160a01b039290921691909117905550565b6060600080846001600160a01b0316846040516101f89190610473565b600060405180830381855af49150503d8060008114610233576040519150601f19603f3d011682016040523d82523d6000602084013e610238565b606091505b5090925090506102498583836102b2565b95945050505050565b34156102715760405163b398979f60e01b815260040160405180910390fd5b565b6001600160a01b03811661029d57604051633173bdd160e11b81526000600482015260240161018e565b80600080516020610e648339815191526101ba565b6060826102c7576102c282610311565b61030a565b81511580156102de57506001600160a01b0384163b155b1561030757604051639996b31560e01b81526001600160a01b038516600482015260240161018e565b50805b9392505050565b8051156103215780518082602001fd5b604051630a12f52160e11b815260040160405180910390fd5b61052c8061093883390190565b80516001600160a01b038116811461035e57600080fd5b919050565b634e487b7160e01b600052604160045260246000fd5b60005b8381101561039457818101518382015260200161037c565b50506000910152565b6000806000606084860312156103b257600080fd5b6103bb84610347565b92506103c960208501610347565b60408501519092506001600160401b038111156103e557600080fd5b8401601f810186136103f657600080fd5b80516001600160401b0381111561040f5761040f610363565b604051601f8201601f19908116603f011681016001600160401b038111828210171561043d5761043d610363565b60405281815282820160200188101561045557600080fd5b610466826020830160208601610379565b8093505050509250925092565b60008251610485818460208701610379565b9190910192915050565b60805161048f6104a960003960006010015261048f6000f3fe608060405261000c61000e565b005b7f00000000000000000000000000000000000000000000000000000000000000006001600160a01b0316330361007b576000356001600160e01b03191663278f794360e11b14610071576040516334ad5dbb60e21b815260040160405180910390fd5b610079610083565b565b6100796100b2565b6000806100933660048184610312565b8101906100a09190610352565b915091506100ae82826100c2565b5050565b6100796100bd61011d565b610155565b6100cb82610179565b6040516001600160a01b038316907fbc7cd75a20ee27fd9adebab32041f755214dbc6bffa90cc0225b39da2e5c2d3b90600090a28051156101155761011082826101f5565b505050565b6100ae61026b565b60006101507f360894a13ba1a3210667c828492db98dca3e2076cc3735a920a3ca505d382bbc546001600160a01b031690565b905090565b3660008037600080366000845af43d6000803e808015610174573d6000f35b3d6000fd5b806001600160a01b03163b6000036101b457604051634c9c8ce360e01b81526001600160a01b03821660048201526024015b60405180910390fd5b7f360894a13ba1a3210667c828492db98dca3e2076cc3735a920a3ca505d382bbc80546001600160a01b0319166001600160a01b0392909216919091179055565b6060600080846001600160a01b031684604051610212919061042a565b600060405180830381855af49150503d806000811461024d576040519150601f19603f3d011682016040523d82523d6000602084013e610252565b606091505b509150915061026285838361028a565b95945050505050565b34156100795760405163b398979f60e01b815260040160405180910390fd5b60608261029f5761029a826102e9565b6102e2565b81511580156102b657506001600160a01b0384163b155b156102df57604051639996b31560e01b81526001600160a01b03851660048201526024016101ab565b50805b9392505050565b8051156102f95780518082602001fd5b604051630a12f52160e11b815260040160405180910390fd5b6000808585111561032257600080fd5b8386111561032f57600080fd5b5050820193919092039150565b634e487b7160e01b600052604160045260246000fd5b6000806040838503121561036557600080fd5b82356001600160a01b038116811461037c57600080fd5b9150602083013567ffffffffffffffff81111561039857600080fd5b8301601f810185136103a957600080fd5b803567ffffffffffffffff8111156103c3576103c361033c565b604051601f8201601f19908116603f0116810167ffffffffffffffff811182821017156103f2576103f261033c565b60405281815282820160200187101561040a57600080fd5b816020840160208301376000602083830101528093505050509250929050565b6000825160005b8181101561044b5760208186018101518583015201610431565b50600092019182525091905056fea2646970667358221220a38b50a5115b11dc694f3bb0a9ce3a5e0be98b735d9d87cc104420429195a12964736f6c634300081b0033608060405234801561001057600080fd5b5060405161052c38038061052c83398101604081905261002f916100be565b806001600160a01b03811661005e57604051631e4fbdf760e01b81526000600482015260240160405180910390fd5b6100678161006e565b50506100ee565b600080546001600160a01b038381166001600160a01b0319831681178455604051919092169283917f8be0079c531659141344cd1fd0a4f28419497f9722a3daafe3b4186f6b6457e09190a35050565b6000602082840312156100d057600080fd5b81516001600160a01b03811681146100e757600080fd5b9392505050565b61042f806100fd6000396000f3fe60806040526004361061004a5760003560e01c8063715018a61461004f5780638da5cb5b146100665780639623609d14610093578063ad3cb1cc146100a6578063f2fde38b146100e4575b600080fd5b34801561005b57600080fd5b50610064610104565b005b34801561007257600080fd5b506000546040516001600160a01b0390911681526020015b60405180910390f35b6100646100a1366004610272565b610118565b3480156100b257600080fd5b506100d7604051806040016040528060058152602001640352e302e360dc1b81525081565b60405161008a9190610396565b3480156100f057600080fd5b506100646100ff3660046103b0565b610187565b61010c6101ca565b61011660006101f7565b565b6101206101ca565b60405163278f794360e11b81526001600160a01b03841690634f1ef28690349061015090869086906004016103cd565b6000604051808303818588803b15801561016957600080fd5b505af115801561017d573d6000803e3d6000fd5b5050505050505050565b61018f6101ca565b6001600160a01b0381166101be57604051631e4fbdf760e01b8152600060048201526024015b60405180910390fd5b6101c7816101f7565b50565b6000546001600160a01b031633146101165760405163118cdaa760e01b81523360048201526024016101b5565b600080546001600160a01b038381166001600160a01b0319831681178455604051919092169283917f8be0079c531659141344cd1fd0a4f28419497f9722a3daafe3b4186f6b6457e09190a35050565b6001600160a01b03811681146101c757600080fd5b634e487b7160e01b600052604160045260246000fd5b60008060006060848603121561028757600080fd5b833561029281610247565b925060208401356102a281610247565b9150604084013567ffffffffffffffff8111156102be57600080fd5b8401601f810186136102cf57600080fd5b803567ffffffffffffffff8111156102e9576102e961025c565b604051601f8201601f19908116603f0116810167ffffffffffffffff811182821017156103185761031861025c565b60405281815282820160200188101561033057600080fd5b816020840160208301376000602083830101528093505050509250925092565b6000815180845260005b818110156103765760208185018101518683018201520161035a565b506000602082860101526020601f19601f83011685010191505092915050565b6020815260006103a96020830184610350565b9392505050565b6000602082840312156103c257600080fd5b81356103a981610247565b6001600160a01b03831681526040602082018190526000906103f190830184610350565b94935050505056fea2646970667358221220e8efdf9ef196cfd6ab1e3399c07439fb6d14426050d22186942ce7946888e7e564736f6c634300081b0033b53127684a568b3173ae13b9f8a6016e243e63b6e8ee1178d6a717850b5d6103","linkReferences":{}},"methodIdentifiers":{"admin()":"f851a440","proxy()":"ec556889"},"id":2}